{
  "_format": "hh-sol-artifact-1",
  "contractName": "PrizeNFT",
  "sourceName": "contracts/PrizeNFT.sol",
  "abi": [
    {
      "inputs": [],
      "stateMutability": "nonpayable",
      "type": "constructor"
    },
    {
      "inputs": [
        {
          "internalType": "address",
          "name": "sender",
          "type": "address"
        },
        {
          "internalType": "uint256",
          "name": "tokenId",
          "type": "uint256"
        },
        {
          "internalType": "address",
          "name": "owner",
          "type": "address"
        }
      ],
      "name": "ERC721IncorrectOwner",
      "type": "error"
    },
    {
      "inputs": [
        {
          "internalType": "address",
          "name": "operator",
          "type": "address"
        },
        {
          "internalType": "uint256",
          "name": "tokenId",
          "type": "uint256"
        }
      ],
      "name": "ERC721InsufficientApproval",
      "type": "error"
    },
    {
      "inputs": [
        {
          "internalType": "address",
          "name": "approver",
          "type": "address"
        }
      ],
      "name": "ERC721InvalidApprover",
      "type": "error"
    },
    {
      "inputs": [
        {
          "internalType": "address",
          "name": "operator",
          "type": "address"
        }
      ],
      "name": "ERC721InvalidOperator",
      "type": "error"
    },
    {
      "inputs": [
        {
          "internalType": "address",
          "name": "owner",
          "type": "address"
        }
      ],
      "name": "ERC721InvalidOwner",
      "type": "error"
    },
    {
      "inputs": [
        {
          "internalType": "address",
          "name": "receiver",
          "type": "address"
        }
      ],
      "name": "ERC721InvalidReceiver",
      "type": "error"
    },
    {
      "inputs": [
        {
          "internalType": "address",
          "name": "sender",
          "type": "address"
        }
      ],
      "name": "ERC721InvalidSender",
      "type": "error"
    },
    {
      "inputs": [
        {
          "internalType": "uint256",
          "name": "tokenId",
          "type": "uint256"
        }
      ],
      "name": "ERC721NonexistentToken",
      "type": "error"
    },
    {
      "inputs": [
        {
          "internalType": "address",
          "name": "owner",
          "type": "address"
        }
      ],
      "name": "OwnableInvalidOwner",
      "type": "error"
    },
    {
      "inputs": [
        {
          "internalType": "address",
          "name": "account",
          "type": "address"
        }
      ],
      "name": "OwnableUnauthorizedAccount",
      "type": "error"
    },
    {
      "anonymous": false,
      "inputs": [
        {
          "indexed": true,
          "internalType": "address",
          "name": "owner",
          "type": "address"
        },
        {
          "indexed": true,
          "internalType": "address",
          "name": "approved",
          "type": "address"
        },
        {
          "indexed": true,
          "internalType": "uint256",
          "name": "tokenId",
          "type": "uint256"
        }
      ],
      "name": "Approval",
      "type": "event"
    },
    {
      "anonymous": false,
      "inputs": [
        {
          "indexed": true,
          "internalType": "address",
          "name": "owner",
          "type": "address"
        },
        {
          "indexed": true,
          "internalType": "address",
          "name": "operator",
          "type": "address"
        },
        {
          "indexed": false,
          "internalType": "bool",
          "name": "approved",
          "type": "bool"
        }
      ],
      "name": "ApprovalForAll",
      "type": "event"
    },
    {
      "anonymous": false,
      "inputs": [
        {
          "indexed": false,
          "internalType": "uint256",
          "name": "_fromTokenId",
          "type": "uint256"
        },
        {
          "indexed": false,
          "internalType": "uint256",
          "name": "_toTokenId",
          "type": "uint256"
        }
      ],
      "name": "BatchMetadataUpdate",
      "type": "event"
    },
    {
      "anonymous": false,
      "inputs": [
        {
          "indexed": false,
          "internalType": "uint256",
          "name": "_tokenId",
          "type": "uint256"
        }
      ],
      "name": "MetadataUpdate",
      "type": "event"
    },
    {
      "anonymous": false,
      "inputs": [
        {
          "indexed": true,
          "internalType": "address",
          "name": "previousOwner",
          "type": "address"
        },
        {
          "indexed": true,
          "internalType": "address",
          "name": "newOwner",
          "type": "address"
        }
      ],
      "name": "OwnershipTransferred",
      "type": "event"
    },
    {
      "anonymous": false,
      "inputs": [
        {
          "indexed": true,
          "internalType": "address",
          "name": "from",
          "type": "address"
        },
        {
          "indexed": true,
          "internalType": "address",
          "name": "to",
          "type": "address"
        },
        {
          "indexed": true,
          "internalType": "uint256",
          "name": "tokenId",
          "type": "uint256"
        }
      ],
      "name": "Transfer",
      "type": "event"
    },
    {
      "inputs": [
        {
          "internalType": "address",
          "name": "to",
          "type": "address"
        },
        {
          "internalType": "uint256",
          "name": "tokenId",
          "type": "uint256"
        }
      ],
      "name": "approve",
      "outputs": [],
      "stateMutability": "nonpayable",
      "type": "function"
    },
    {
      "inputs": [
        {
          "internalType": "address",
          "name": "owner",
          "type": "address"
        }
      ],
      "name": "balanceOf",
      "outputs": [
        {
          "internalType": "uint256",
          "name": "",
          "type": "uint256"
        }
      ],
      "stateMutability": "view",
      "type": "function"
    },
    {
      "inputs": [
        {
          "internalType": "uint256",
          "name": "tokenId",
          "type": "uint256"
        }
      ],
      "name": "getApproved",
      "outputs": [
        {
          "internalType": "address",
          "name": "",
          "type": "address"
        }
      ],
      "stateMutability": "view",
      "type": "function"
    },
    {
      "inputs": [
        {
          "internalType": "address",
          "name": "owner",
          "type": "address"
        },
        {
          "internalType": "address",
          "name": "operator",
          "type": "address"
        }
      ],
      "name": "isApprovedForAll",
      "outputs": [
        {
          "internalType": "bool",
          "name": "",
          "type": "bool"
        }
      ],
      "stateMutability": "view",
      "type": "function"
    },
    {
      "inputs": [
        {
          "internalType": "address",
          "name": "to",
          "type": "address"
        },
        {
          "internalType": "string",
          "name": "tokenURI_",
          "type": "string"
        }
      ],
      "name": "mintTo",
      "outputs": [
        {
          "internalType": "uint256",
          "name": "tokenId",
          "type": "uint256"
        }
      ],
      "stateMutability": "nonpayable",
      "type": "function"
    },
    {
      "inputs": [],
      "name": "name",
      "outputs": [
        {
          "internalType": "string",
          "name": "",
          "type": "string"
        }
      ],
      "stateMutability": "view",
      "type": "function"
    },
    {
      "inputs": [],
      "name": "nextId",
      "outputs": [
        {
          "internalType": "uint256",
          "name": "",
          "type": "uint256"
        }
      ],
      "stateMutability": "view",
      "type": "function"
    },
    {
      "inputs": [],
      "name": "owner",
      "outputs": [
        {
          "internalType": "address",
          "name": "",
          "type": "address"
        }
      ],
      "stateMutability": "view",
      "type": "function"
    },
    {
      "inputs": [
        {
          "internalType": "uint256",
          "name": "tokenId",
          "type": "uint256"
        }
      ],
      "name": "ownerOf",
      "outputs": [
        {
          "internalType": "address",
          "name": "",
          "type": "address"
        }
      ],
      "stateMutability": "view",
      "type": "function"
    },
    {
      "inputs": [],
      "name": "renounceOwnership",
      "outputs": [],
      "stateMutability": "nonpayable",
      "type": "function"
    },
    {
      "inputs": [
        {
          "internalType": "address",
          "name": "from",
          "type": "address"
        },
        {
          "internalType": "address",
          "name": "to",
          "type": "address"
        },
        {
          "internalType": "uint256",
          "name": "tokenId",
          "type": "uint256"
        }
      ],
      "name": "safeTransferFrom",
      "outputs": [],
      "stateMutability": "nonpayable",
      "type": "function"
    },
    {
      "inputs": [
        {
          "internalType": "address",
          "name": "from",
          "type": "address"
        },
        {
          "internalType": "address",
          "name": "to",
          "type": "address"
        },
        {
          "internalType": "uint256",
          "name": "tokenId",
          "type": "uint256"
        },
        {
          "internalType": "bytes",
          "name": "data",
          "type": "bytes"
        }
      ],
      "name": "safeTransferFrom",
      "outputs": [],
      "stateMutability": "nonpayable",
      "type": "function"
    },
    {
      "inputs": [
        {
          "internalType": "address",
          "name": "operator",
          "type": "address"
        },
        {
          "internalType": "bool",
          "name": "approved",
          "type": "bool"
        }
      ],
      "name": "setApprovalForAll",
      "outputs": [],
      "stateMutability": "nonpayable",
      "type": "function"
    },
    {
      "inputs": [
        {
          "internalType": "bytes4",
          "name": "interfaceId",
          "type": "bytes4"
        }
      ],
      "name": "supportsInterface",
      "outputs": [
        {
          "internalType": "bool",
          "name": "",
          "type": "bool"
        }
      ],
      "stateMutability": "view",
      "type": "function"
    },
    {
      "inputs": [],
      "name": "symbol",
      "outputs": [
        {
          "internalType": "string",
          "name": "",
          "type": "string"
        }
      ],
      "stateMutability": "view",
      "type": "function"
    },
    {
      "inputs": [
        {
          "internalType": "uint256",
          "name": "tokenId",
          "type": "uint256"
        }
      ],
      "name": "tokenURI",
      "outputs": [
        {
          "internalType": "string",
          "name": "",
          "type": "string"
        }
      ],
      "stateMutability": "view",
      "type": "function"
    },
    {
      "inputs": [
        {
          "internalType": "address",
          "name": "from",
          "type": "address"
        },
        {
          "internalType": "address",
          "name": "to",
          "type": "address"
        },
        {
          "internalType": "uint256",
          "name": "tokenId",
          "type": "uint256"
        }
      ],
      "name": "transferFrom",
      "outputs": [],
      "stateMutability": "nonpayable",
      "type": "function"
    },
    {
      "inputs": [
        {
          "internalType": "address",
          "name": "newOwner",
          "type": "address"
        }
      ],
      "name": "transferOwnership",
      "outputs": [],
      "stateMutability": "nonpayable",
      "type": "function"
    }
  ],
  "bytecode": "0x6080604052600160085534801561001557600080fd5b50336040518060400160405280600b81526020017f507974685065726c696e730000000000000000000000000000000000000000008152506040518060400160405280600581526020017f5059504c4e00000000000000000000000000000000000000000000000000000081525081600090816100929190610442565b5080600190816100a29190610442565b505050600073ffffffffffffffffffffffffffffffffffffffff168173ffffffffffffffffffffffffffffffffffffffff16036101175760006040517f1e4fbdf700000000000000000000000000000000000000000000000000000000815260040161010e9190610555565b60405180910390fd5b6101268161012c60201b60201c565b50610570565b6000600760009054906101000a900473ffffffffffffffffffffffffffffffffffffffff16905081600760006101000a81548173ffffffffffffffffffffffffffffffffffffffff021916908373ffffffffffffffffffffffffffffffffffffffff1602179055508173ffffffffffffffffffffffffffffffffffffffff168173ffffffffffffffffffffffffffffffffffffffff167f8be0079c531659141344cd1fd0a4f28419497f9722a3daafe3b4186f6b6457e060405160405180910390a35050565b600081519050919050565b7f4e487b7100000000000000000000000000000000000000000000000000000000600052604160045260246000fd5b7f4e487b7100000000000000000000000000000000000000000000000000000000600052602260045260246000fd5b6000600282049050600182168061027357607f821691505b6020821081036102865761028561022c565b5b50919050565b60008190508160005260206000209050919050565b60006020601f8301049050919050565b600082821b905092915050565b6000600883026102ee7fffffffffffffffffffffffffffffffffffffffffffffffffffffffffffffffff826102b1565b6102f886836102b1565b95508019841693508086168417925050509392505050565b6000819050919050565b6000819050919050565b600061033f61033a61033584610310565b61031a565b610310565b9050919050565b6000819050919050565b61035983610324565b61036d61036582610346565b8484546102be565b825550505050565b600090565b610382610375565b61038d818484610350565b505050565b5b818110156103b1576103a660008261037a565b600181019050610393565b5050565b601f8211156103f6576103c78161028c565b6103d0846102a1565b810160208510156103df578190505b6103f36103eb856102a1565b830182610392565b50505b505050565b600082821c905092915050565b6000610419600019846008026103fb565b1980831691505092915050565b60006104328383610408565b9150826002028217905092915050565b61044b826101f2565b67ffffffffffffffff811115610464576104636101fd565b5b61046e825461025b565b6104798282856103b5565b600060209050601f8311600181146104ac576000841561049a578287015190505b6104a48582610426565b86555061050c565b601f1984166104ba8661028c565b60005b828110156104e2578489015182556001820191506020850194506020810190506104bd565b868310156104ff57848901516104fb601f891682610408565b8355505b6001600288020188555050505b505050505050565b600073ffffffffffffffffffffffffffffffffffffffff82169050919050565b600061053f82610514565b9050919050565b61054f81610534565b82525050565b600060208201905061056a6000830184610546565b92915050565b6126af8061057f6000396000f3fe608060405234801561001057600080fd5b50600436106101155760003560e01c806370a08231116100a2578063a22cb46511610071578063a22cb465146102e0578063b88d4fde146102fc578063c87b56dd14610318578063e985e9c514610348578063f2fde38b1461037857610115565b806370a082311461026a578063715018a61461029a5780638da5cb5b146102a457806395d89b41146102c257610115565b8063095ea7b3116100e9578063095ea7b3146101c857806323b872dd146101e457806342842e0e1461020057806361b8ce8c1461021c5780636352211e1461023a57610115565b806275a3171461011a57806301ffc9a71461014a57806306fdde031461017a578063081812fc14610198575b600080fd5b610134600480360381019061012f9190611baf565b610394565b6040516101419190611c28565b60405180910390f35b610164600480360381019061015f9190611c9b565b610416565b6040516101719190611ce3565b60405180910390f35b610182610477565b60405161018f9190611d8e565b60405180910390f35b6101b260048036038101906101ad9190611ddc565b610509565b6040516101bf9190611e18565b60405180910390f35b6101e260048036038101906101dd9190611e33565b610525565b005b6101fe60048036038101906101f99190611e73565b61053b565b005b61021a60048036038101906102159190611e73565b61063d565b005b61022461065d565b6040516102319190611c28565b60405180910390f35b610254600480360381019061024f9190611ddc565b610663565b6040516102619190611e18565b60405180910390f35b610284600480360381019061027f9190611ec6565b610675565b6040516102919190611c28565b60405180910390f35b6102a261072f565b005b6102ac610743565b6040516102b99190611e18565b60405180910390f35b6102ca61076d565b6040516102d79190611d8e565b60405180910390f35b6102fa60048036038101906102f59190611f1f565b6107ff565b005b6103166004803603810190610311919061208f565b610815565b005b610332600480360381019061032d9190611ddc565b61083a565b60405161033f9190611d8e565b60405180910390f35b610362600480360381019061035d9190612112565b61094d565b60405161036f9190611ce3565b60405180910390f35b610392600480360381019061038d9190611ec6565b6109e1565b005b600061039e610a67565b600860008154809291906103b190612181565b9190505590506103c18482610aee565b61040f8184848080601f016020809104026020016040519081016040528093929190818152602001838380828437600081840152601f19601f82011690508083019250505050505050610b0c565b9392505050565b6000634906490660e01b7bffffffffffffffffffffffffffffffffffffffffffffffffffffffff1916827bffffffffffffffffffffffffffffffffffffffffffffffffffffffff19161480610470575061046f82610b68565b5b9050919050565b606060008054610486906121f8565b80601f01602080910402602001604051908101604052809291908181526020018280546104b2906121f8565b80156104ff5780601f106104d4576101008083540402835291602001916104ff565b820191906000526020600020905b8154815290600101906020018083116104e257829003601f168201915b5050505050905090565b600061051482610c4a565b5061051e82610cd2565b9050919050565b6105378282610532610d0f565b610d17565b5050565b600073ffffffffffffffffffffffffffffffffffffffff168273ffffffffffffffffffffffffffffffffffffffff16036105ad5760006040517f64a0ae920000000000000000000000000000000000000000000000000000000081526004016105a49190611e18565b60405180910390fd5b60006105c183836105bc610d0f565b610d29565b90508373ffffffffffffffffffffffffffffffffffffffff168173ffffffffffffffffffffffffffffffffffffffff1614610637578382826040517f64283d7b00000000000000000000000000000000000000000000000000000000815260040161062e93929190612229565b60405180910390fd5b50505050565b61065883838360405180602001604052806000815250610815565b505050565b60085481565b600061066e82610c4a565b9050919050565b60008073ffffffffffffffffffffffffffffffffffffffff168273ffffffffffffffffffffffffffffffffffffffff16036106e85760006040517f89c62b640000000000000000000000000000000000000000000000000000000081526004016106df9190611e18565b60405180910390fd5b600360008373ffffffffffffffffffffffffffffffffffffffff1673ffffffffffffffffffffffffffffffffffffffff168152602001908152602001600020549050919050565b610737610a67565b6107416000610f43565b565b6000600760009054906101000a900473ffffffffffffffffffffffffffffffffffffffff16905090565b60606001805461077c906121f8565b80601f01602080910402602001604051908101604052809291908181526020018280546107a8906121f8565b80156107f55780601f106107ca576101008083540402835291602001916107f5565b820191906000526020600020905b8154815290600101906020018083116107d857829003601f168201915b5050505050905090565b61081161080a610d0f565b8383611009565b5050565b61082084848461053b565b61083461082b610d0f565b85858585611178565b50505050565b606061084582610c4a565b506000600660008481526020019081526020016000208054610866906121f8565b80601f0160208091040260200160405190810160405280929190818152602001828054610892906121f8565b80156108df5780601f106108b4576101008083540402835291602001916108df565b820191906000526020600020905b8154815290600101906020018083116108c257829003601f168201915b5050505050905060006108f0611329565b90506000815103610905578192505050610948565b60008251111561093a57808260405160200161092292919061229c565b60405160208183030381529060405292505050610948565b61094384611340565b925050505b919050565b6000600560008473ffffffffffffffffffffffffffffffffffffffff1673ffffffffffffffffffffffffffffffffffffffff16815260200190815260200160002060008373ffffffffffffffffffffffffffffffffffffffff1673ffffffffffffffffffffffffffffffffffffffff16815260200190815260200160002060009054906101000a900460ff16905092915050565b6109e9610a67565b600073ffffffffffffffffffffffffffffffffffffffff168173ffffffffffffffffffffffffffffffffffffffff1603610a5b5760006040517f1e4fbdf7000000000000000000000000000000000000000000000000000000008152600401610a529190611e18565b60405180910390fd5b610a6481610f43565b50565b610a6f610d0f565b73ffffffffffffffffffffffffffffffffffffffff16610a8d610743565b73ffffffffffffffffffffffffffffffffffffffff1614610aec57610ab0610d0f565b6040517f118cdaa7000000000000000000000000000000000000000000000000000000008152600401610ae39190611e18565b60405180910390fd5b565b610b088282604051806020016040528060008152506113a9565b5050565b80600660008481526020019081526020016000209081610b2c919061246c565b507ff8e1a15aba9398e019f0b49df1a4fde98ee17ae345cb5f6b5e2c27f5033e8ce782604051610b5c9190611c28565b60405180910390a15050565b60007f80ac58cd000000000000000000000000000000000000000000000000000000007bffffffffffffffffffffffffffffffffffffffffffffffffffffffff1916827bffffffffffffffffffffffffffffffffffffffffffffffffffffffff19161480610c3357507f5b5e139f000000000000000000000000000000000000000000000000000000007bffffffffffffffffffffffffffffffffffffffffffffffffffffffff1916827bffffffffffffffffffffffffffffffffffffffffffffffffffffffff1916145b80610c435750610c42826113cd565b5b9050919050565b600080610c5683611437565b9050600073ffffffffffffffffffffffffffffffffffffffff168173ffffffffffffffffffffffffffffffffffffffff1603610cc957826040517f7e273289000000000000000000000000000000000000000000000000000000008152600401610cc09190611c28565b60405180910390fd5b80915050919050565b60006004600083815260200190815260200160002060009054906101000a900473ffffffffffffffffffffffffffffffffffffffff169050919050565b600033905090565b610d248383836001611474565b505050565b600080610d3584611437565b9050600073ffffffffffffffffffffffffffffffffffffffff168373ffffffffffffffffffffffffffffffffffffffff1614610d7757610d76818486611639565b5b600073ffffffffffffffffffffffffffffffffffffffff168173ffffffffffffffffffffffffffffffffffffffff1614610e0857610db9600085600080611474565b6001600360008373ffffffffffffffffffffffffffffffffffffffff1673ffffffffffffffffffffffffffffffffffffffff168152602001908152602001600020600082825403925050819055505b600073ffffffffffffffffffffffffffffffffffffffff168573ffffffffffffffffffffffffffffffffffffffff1614610e8b576001600360008773ffffffffffffffffffffffffffffffffffffffff1673ffffffffffffffffffffffffffffffffffffffff168152602001908152602001600020600082825401925050819055505b846002600086815260200190815260200160002060006101000a81548173ffffffffffffffffffffffffffffffffffffffff021916908373ffffffffffffffffffffffffffffffffffffffff160217905550838573ffffffffffffffffffffffffffffffffffffffff168273ffffffffffffffffffffffffffffffffffffffff167fddf252ad1be2c89b69c2b068fc378daa952ba7f163c4a11628f55a4df523b3ef60405160405180910390a4809150509392505050565b6000600760009054906101000a900473ffffffffffffffffffffffffffffffffffffffff16905081600760006101000a81548173ffffffffffffffffffffffffffffffffffffffff021916908373ffffffffffffffffffffffffffffffffffffffff1602179055508173ffffffffffffffffffffffffffffffffffffffff168173ffffffffffffffffffffffffffffffffffffffff167f8be0079c531659141344cd1fd0a4f28419497f9722a3daafe3b4186f6b6457e060405160405180910390a35050565b600073ffffffffffffffffffffffffffffffffffffffff168273ffffffffffffffffffffffffffffffffffffffff160361107a57816040517f5b08ba180000000000000000000000000000000000000000000000000000000081526004016110719190611e18565b60405180910390fd5b80600560008573ffffffffffffffffffffffffffffffffffffffff1673ffffffffffffffffffffffffffffffffffffffff16815260200190815260200160002060008473ffffffffffffffffffffffffffffffffffffffff1673ffffffffffffffffffffffffffffffffffffffff16815260200190815260200160002060006101000a81548160ff0219169083151502179055508173ffffffffffffffffffffffffffffffffffffffff168373ffffffffffffffffffffffffffffffffffffffff167f17307eab39ab6107e8899845ad3d59bd9653f200f220920489ca2b5937696c318360405161116b9190611ce3565b60405180910390a3505050565b60008373ffffffffffffffffffffffffffffffffffffffff163b1115611322578273ffffffffffffffffffffffffffffffffffffffff1663150b7a02868685856040518563ffffffff1660e01b81526004016111d79493929190612593565b6020604051808303816000875af192505050801561121357506040513d601f19601f8201168201806040525081019061121091906125f4565b60015b611297573d8060008114611243576040519150601f19603f3d011682016040523d82523d6000602084013e611248565b606091505b50600081510361128f57836040517f64a0ae920000000000000000000000000000000000000000000000000000000081526004016112869190611e18565b60405180910390fd5b805160208201fd5b63150b7a0260e01b7bffffffffffffffffffffffffffffffffffffffffffffffffffffffff1916817bffffffffffffffffffffffffffffffffffffffffffffffffffffffff19161461132057836040517f64a0ae920000000000000000000000000000000000000000000000000000000081526004016113179190611e18565b60405180910390fd5b505b5050505050565b606060405180602001604052806000815250905090565b606061134b82610c4a565b506000611356611329565b9050600081511161137657604051806020016040528060008152506113a1565b80611380846116fd565b60405160200161139192919061229c565b6040516020818303038152906040525b915050919050565b6113b383836117cb565b6113c86113be610d0f565b6000858585611178565b505050565b60007f01ffc9a7000000000000000000000000000000000000000000000000000000007bffffffffffffffffffffffffffffffffffffffffffffffffffffffff1916827bffffffffffffffffffffffffffffffffffffffffffffffffffffffff1916149050919050565b60006002600083815260200190815260200160002060009054906101000a900473ffffffffffffffffffffffffffffffffffffffff169050919050565b80806114ad5750600073ffffffffffffffffffffffffffffffffffffffff168273ffffffffffffffffffffffffffffffffffffffff1614155b156115e15760006114bd84610c4a565b9050600073ffffffffffffffffffffffffffffffffffffffff168373ffffffffffffffffffffffffffffffffffffffff161415801561152857508273ffffffffffffffffffffffffffffffffffffffff168173ffffffffffffffffffffffffffffffffffffffff1614155b801561153b5750611539818461094d565b155b1561157d57826040517fa9fbf51f0000000000000000000000000000000000000000000000000000000081526004016115749190611e18565b60405180910390fd5b81156115df57838573ffffffffffffffffffffffffffffffffffffffff168273ffffffffffffffffffffffffffffffffffffffff167f8c5be1e5ebec7d5bd14f71427d1e84f3dd0314c0f7b2291e5b200ac8c7c3b92560405160405180910390a45b505b836004600085815260200190815260200160002060006101000a81548173ffffffffffffffffffffffffffffffffffffffff021916908373ffffffffffffffffffffffffffffffffffffffff16021790555050505050565b6116448383836118c4565b6116f857600073ffffffffffffffffffffffffffffffffffffffff168373ffffffffffffffffffffffffffffffffffffffff16036116b957806040517f7e2732890000000000000000000000000000000000000000000000000000000081526004016116b09190611c28565b60405180910390fd5b81816040517f177e802f0000000000000000000000000000000000000000000000000000000081526004016116ef929190612621565b60405180910390fd5b505050565b60606000600161170c84611985565b01905060008167ffffffffffffffff81111561172b5761172a611f64565b5b6040519080825280601f01601f19166020018201604052801561175d5781602001600182028036833780820191505090505b509050600082602083010190505b6001156117c0578080600190039150507f3031323334353637383961626364656600000000000000000000000000000000600a86061a8153600a85816117b4576117b361264a565b5b0494506000850361176b575b819350505050919050565b600073ffffffffffffffffffffffffffffffffffffffff168273ffffffffffffffffffffffffffffffffffffffff160361183d5760006040517f64a0ae920000000000000000000000000000000000000000000000000000000081526004016118349190611e18565b60405180910390fd5b600061184b83836000610d29565b9050600073ffffffffffffffffffffffffffffffffffffffff168173ffffffffffffffffffffffffffffffffffffffff16146118bf5760006040517f73c6ac6e0000000000000000000000000000000000000000000000000000000081526004016118b69190611e18565b60405180910390fd5b505050565b60008073ffffffffffffffffffffffffffffffffffffffff168373ffffffffffffffffffffffffffffffffffffffff161415801561197c57508273ffffffffffffffffffffffffffffffffffffffff168473ffffffffffffffffffffffffffffffffffffffff16148061193d575061193c848461094d565b5b8061197b57508273ffffffffffffffffffffffffffffffffffffffff1661196383610cd2565b73ffffffffffffffffffffffffffffffffffffffff16145b5b90509392505050565b600080600090507a184f03e93ff9f4daa797ed6e38ed64bf6a1f01000000000000000083106119e3577a184f03e93ff9f4daa797ed6e38ed64bf6a1f01000000000000000083816119d9576119d861264a565b5b0492506040810190505b6d04ee2d6d415b85acef81000000008310611a20576d04ee2d6d415b85acef81000000008381611a1657611a1561264a565b5b0492506020810190505b662386f26fc100008310611a4f57662386f26fc100008381611a4557611a4461264a565b5b0492506010810190505b6305f5e1008310611a78576305f5e1008381611a6e57611a6d61264a565b5b0492506008810190505b6127108310611a9d576127108381611a9357611a9261264a565b5b0492506004810190505b60648310611ac05760648381611ab657611ab561264a565b5b0492506002810190505b600a8310611acf576001810190505b80915050919050565b6000604051905090565b600080fd5b600080fd5b600073ffffffffffffffffffffffffffffffffffffffff82169050919050565b6000611b1782611aec565b9050919050565b611b2781611b0c565b8114611b3257600080fd5b50565b600081359050611b4481611b1e565b92915050565b600080fd5b600080fd5b600080fd5b60008083601f840112611b6f57611b6e611b4a565b5b8235905067ffffffffffffffff811115611b8c57611b8b611b4f565b5b602083019150836001820283011115611ba857611ba7611b54565b5b9250929050565b600080600060408486031215611bc857611bc7611ae2565b5b6000611bd686828701611b35565b935050602084013567ffffffffffffffff811115611bf757611bf6611ae7565b5b611c0386828701611b59565b92509250509250925092565b6000819050919050565b611c2281611c0f565b82525050565b6000602082019050611c3d6000830184611c19565b92915050565b60007fffffffff0000000000000000000000000000000000000000000000000000000082169050919050565b611c7881611c43565b8114611c8357600080fd5b50565b600081359050611c9581611c6f565b92915050565b600060208284031215611cb157611cb0611ae2565b5b6000611cbf84828501611c86565b91505092915050565b60008115159050919050565b611cdd81611cc8565b82525050565b6000602082019050611cf86000830184611cd4565b92915050565b600081519050919050565b600082825260208201905092915050565b60005b83811015611d38578082015181840152602081019050611d1d565b60008484015250505050565b6000601f19601f8301169050919050565b6000611d6082611cfe565b611d6a8185611d09565b9350611d7a818560208601611d1a565b611d8381611d44565b840191505092915050565b60006020820190508181036000830152611da88184611d55565b905092915050565b611db981611c0f565b8114611dc457600080fd5b50565b600081359050611dd681611db0565b92915050565b600060208284031215611df257611df1611ae2565b5b6000611e0084828501611dc7565b91505092915050565b611e1281611b0c565b82525050565b6000602082019050611e2d6000830184611e09565b92915050565b60008060408385031215611e4a57611e49611ae2565b5b6000611e5885828601611b35565b9250506020611e6985828601611dc7565b9150509250929050565b600080600060608486031215611e8c57611e8b611ae2565b5b6000611e9a86828701611b35565b9350506020611eab86828701611b35565b9250506040611ebc86828701611dc7565b9150509250925092565b600060208284031215611edc57611edb611ae2565b5b6000611eea84828501611b35565b91505092915050565b611efc81611cc8565b8114611f0757600080fd5b50565b600081359050611f1981611ef3565b92915050565b60008060408385031215611f3657611f35611ae2565b5b6000611f4485828601611b35565b9250506020611f5585828601611f0a565b9150509250929050565b600080fd5b7f4e487b7100000000000000000000000000000000000000000000000000000000600052604160045260246000fd5b611f9c82611d44565b810181811067ffffffffffffffff82111715611fbb57611fba611f64565b5b80604052505050565b6000611fce611ad8565b9050611fda8282611f93565b919050565b600067ffffffffffffffff821115611ffa57611ff9611f64565b5b61200382611d44565b9050602081019050919050565b82818337600083830152505050565b600061203261202d84611fdf565b611fc4565b90508281526020810184848401111561204e5761204d611f5f565b5b612059848285612010565b509392505050565b600082601f83011261207657612075611b4a565b5b813561208684826020860161201f565b91505092915050565b600080600080608085870312156120a9576120a8611ae2565b5b60006120b787828801611b35565b94505060206120c887828801611b35565b93505060406120d987828801611dc7565b925050606085013567ffffffffffffffff8111156120fa576120f9611ae7565b5b61210687828801612061565b91505092959194509250565b6000806040838503121561212957612128611ae2565b5b600061213785828601611b35565b925050602061214885828601611b35565b9150509250929050565b7f4e487b7100000000000000000000000000000000000000000000000000000000600052601160045260246000fd5b600061218c82611c0f565b91507fffffffffffffffffffffffffffffffffffffffffffffffffffffffffffffffff82036121be576121bd612152565b5b600182019050919050565b7f4e487b7100000000000000000000000000000000000000000000000000000000600052602260045260246000fd5b6000600282049050600182168061221057607f821691505b602082108103612223576122226121c9565b5b50919050565b600060608201905061223e6000830186611e09565b61224b6020830185611c19565b6122586040830184611e09565b949350505050565b600081905092915050565b600061227682611cfe565b6122808185612260565b9350612290818560208601611d1a565b80840191505092915050565b60006122a8828561226b565b91506122b4828461226b565b91508190509392505050565b60008190508160005260206000209050919050565b60006020601f8301049050919050565b600082821b905092915050565b6000600883026123227fffffffffffffffffffffffffffffffffffffffffffffffffffffffffffffffff826122e5565b61232c86836122e5565b95508019841693508086168417925050509392505050565b6000819050919050565b600061236961236461235f84611c0f565b612344565b611c0f565b9050919050565b6000819050919050565b6123838361234e565b61239761238f82612370565b8484546122f2565b825550505050565b600090565b6123ac61239f565b6123b781848461237a565b505050565b5b818110156123db576123d06000826123a4565b6001810190506123bd565b5050565b601f821115612420576123f1816122c0565b6123fa846122d5565b81016020851015612409578190505b61241d612415856122d5565b8301826123bc565b50505b505050565b600082821c905092915050565b600061244360001984600802612425565b1980831691505092915050565b600061245c8383612432565b9150826002028217905092915050565b61247582611cfe565b67ffffffffffffffff81111561248e5761248d611f64565b5b61249882546121f8565b6124a38282856123df565b600060209050601f8311600181146124d657600084156124c4578287015190505b6124ce8582612450565b865550612536565b601f1984166124e4866122c0565b60005b8281101561250c578489015182556001820191506020850194506020810190506124e7565b868310156125295784890151612525601f891682612432565b8355505b6001600288020188555050505b505050505050565b600081519050919050565b600082825260208201905092915050565b60006125658261253e565b61256f8185612549565b935061257f818560208601611d1a565b61258881611d44565b840191505092915050565b60006080820190506125a86000830187611e09565b6125b56020830186611e09565b6125c26040830185611c19565b81810360608301526125d4818461255a565b905095945050505050565b6000815190506125ee81611c6f565b92915050565b60006020828403121561260a57612609611ae2565b5b6000612618848285016125df565b91505092915050565b60006040820190506126366000830185611e09565b6126436020830184611c19565b9392505050565b7f4e487b7100000000000000000000000000000000000000000000000000000000600052601260045260246000fdfea264697066735822122070a7d4cc59d5d6006427751209d56b504087eac3732caadf71cb0a83abb7e90f64736f6c634300081c0033",
  "linkReferences": {},
  "deployedLinkReferences": {}
}