{
  "_format": "hh-sol-artifact-1",
  "contractName": "SplitOrSteal",
  "sourceName": "contracts/SplitOrSteal.sol",
  "abi": [
    {
      "inputs": [
        {
          "internalType": "address",
          "name": "acgcAddr",
          "type": "address"
        }
      ],
      "stateMutability": "nonpayable",
      "type": "constructor"
    },
    {
      "anonymous": false,
      "inputs": [
        {
          "indexed": true,
          "internalType": "address",
          "name": "wallet",
          "type": "address"
        },
        {
          "indexed": false,
          "internalType": "uint256",
          "name": "nullifier",
          "type": "uint256"
        }
      ],
      "name": "Bound",
      "type": "event"
    },
    {
      "anonymous": false,
      "inputs": [
        {
          "indexed": true,
          "internalType": "uint256",
          "name": "roomId",
          "type": "uint256"
        },
        {
          "indexed": true,
          "internalType": "address",
          "name": "player",
          "type": "address"
        },
        {
          "indexed": false,
          "internalType": "bytes32",
          "name": "commitment",
          "type": "bytes32"
        }
      ],
      "name": "Committed",
      "type": "event"
    },
    {
      "anonymous": false,
      "inputs": [
        {
          "indexed": true,
          "internalType": "uint256",
          "name": "roomId",
          "type": "uint256"
        },
        {
          "indexed": false,
          "internalType": "address",
          "name": "winner",
          "type": "address"
        },
        {
          "indexed": false,
          "internalType": "address",
          "name": "loser",
          "type": "address"
        },
        {
          "indexed": false,
          "internalType": "uint256",
          "name": "toWinner",
          "type": "uint256"
        },
        {
          "indexed": false,
          "internalType": "uint256",
          "name": "toLoser",
          "type": "uint256"
        },
        {
          "indexed": false,
          "internalType": "uint256",
          "name": "stealStealRounds",
          "type": "uint256"
        },
        {
          "indexed": false,
          "internalType": "bool",
          "name": "tie",
          "type": "bool"
        }
      ],
      "name": "MatchSettled",
      "type": "event"
    },
    {
      "anonymous": false,
      "inputs": [
        {
          "indexed": false,
          "internalType": "int256",
          "name": "delta",
          "type": "int256"
        },
        {
          "indexed": false,
          "internalType": "uint256",
          "name": "newTotal",
          "type": "uint256"
        }
      ],
      "name": "ProtocolPoolUpdated",
      "type": "event"
    },
    {
      "anonymous": false,
      "inputs": [
        {
          "indexed": true,
          "internalType": "uint256",
          "name": "roomId",
          "type": "uint256"
        },
        {
          "indexed": true,
          "internalType": "address",
          "name": "player",
          "type": "address"
        },
        {
          "indexed": false,
          "internalType": "uint8",
          "name": "moves5bits",
          "type": "uint8"
        },
        {
          "indexed": false,
          "internalType": "bytes32",
          "name": "salt",
          "type": "bytes32"
        }
      ],
      "name": "Revealed",
      "type": "event"
    },
    {
      "anonymous": false,
      "inputs": [
        {
          "indexed": true,
          "internalType": "uint256",
          "name": "roomId",
          "type": "uint256"
        },
        {
          "indexed": true,
          "internalType": "address",
          "name": "host",
          "type": "address"
        },
        {
          "indexed": false,
          "internalType": "uint256",
          "name": "stake",
          "type": "uint256"
        },
        {
          "indexed": false,
          "internalType": "uint64",
          "name": "commitDL",
          "type": "uint64"
        },
        {
          "indexed": false,
          "internalType": "uint64",
          "name": "revealDL",
          "type": "uint64"
        }
      ],
      "name": "RoomCreated",
      "type": "event"
    },
    {
      "anonymous": false,
      "inputs": [
        {
          "indexed": true,
          "internalType": "uint256",
          "name": "roomId",
          "type": "uint256"
        },
        {
          "indexed": true,
          "internalType": "address",
          "name": "joiner",
          "type": "address"
        }
      ],
      "name": "RoomJoined",
      "type": "event"
    },
    {
      "anonymous": false,
      "inputs": [
        {
          "indexed": true,
          "internalType": "address",
          "name": "to",
          "type": "address"
        },
        {
          "indexed": false,
          "internalType": "uint256",
          "name": "amount",
          "type": "uint256"
        }
      ],
      "name": "Withdrawal",
      "type": "event"
    },
    {
      "inputs": [],
      "name": "acgc",
      "outputs": [
        {
          "internalType": "contract IACGC",
          "name": "",
          "type": "address"
        }
      ],
      "stateMutability": "view",
      "type": "function"
    },
    {
      "inputs": [
        {
          "internalType": "uint256",
          "name": "nullifier",
          "type": "uint256"
        }
      ],
      "name": "bindNullifierOnce",
      "outputs": [],
      "stateMutability": "nonpayable",
      "type": "function"
    },
    {
      "inputs": [
        {
          "internalType": "address",
          "name": "",
          "type": "address"
        }
      ],
      "name": "boundNullifier",
      "outputs": [
        {
          "internalType": "uint256",
          "name": "",
          "type": "uint256"
        }
      ],
      "stateMutability": "view",
      "type": "function"
    },
    {
      "inputs": [
        {
          "internalType": "uint256",
          "name": "roomId",
          "type": "uint256"
        }
      ],
      "name": "cancelRoom",
      "outputs": [],
      "stateMutability": "nonpayable",
      "type": "function"
    },
    {
      "inputs": [
        {
          "internalType": "uint256",
          "name": "roomId",
          "type": "uint256"
        }
      ],
      "name": "claimNoCommit",
      "outputs": [],
      "stateMutability": "nonpayable",
      "type": "function"
    },
    {
      "inputs": [
        {
          "internalType": "uint256",
          "name": "roomId",
          "type": "uint256"
        },
        {
          "internalType": "bytes32",
          "name": "commitment",
          "type": "bytes32"
        },
        {
          "internalType": "uint256",
          "name": "nullifier",
          "type": "uint256"
        }
      ],
      "name": "commit",
      "outputs": [],
      "stateMutability": "nonpayable",
      "type": "function"
    },
    {
      "inputs": [
        {
          "internalType": "uint256",
          "name": "stakeWei",
          "type": "uint256"
        },
        {
          "internalType": "uint64",
          "name": "commitDL",
          "type": "uint64"
        },
        {
          "internalType": "uint64",
          "name": "revealDL",
          "type": "uint64"
        },
        {
          "internalType": "uint256",
          "name": "nullifier",
          "type": "uint256"
        }
      ],
      "name": "createRoom",
      "outputs": [
        {
          "internalType": "uint256",
          "name": "roomId",
          "type": "uint256"
        }
      ],
      "stateMutability": "payable",
      "type": "function"
    },
    {
      "inputs": [
        {
          "internalType": "uint256",
          "name": "roomId",
          "type": "uint256"
        }
      ],
      "name": "getRoom",
      "outputs": [
        {
          "components": [
            {
              "internalType": "address",
              "name": "p1",
              "type": "address"
            },
            {
              "internalType": "address",
              "name": "p2",
              "type": "address"
            },
            {
              "internalType": "uint256",
              "name": "stake",
              "type": "uint256"
            },
            {
              "internalType": "uint64",
              "name": "commitDL",
              "type": "uint64"
            },
            {
              "internalType": "uint64",
              "name": "revealDL",
              "type": "uint64"
            },
            {
              "internalType": "bytes32",
              "name": "c1",
              "type": "bytes32"
            },
            {
              "internalType": "bytes32",
              "name": "c2",
              "type": "bytes32"
            },
            {
              "internalType": "bool",
              "name": "r1",
              "type": "bool"
            },
            {
              "internalType": "bool",
              "name": "r2",
              "type": "bool"
            },
            {
              "internalType": "uint8",
              "name": "moves1",
              "type": "uint8"
            },
            {
              "internalType": "uint8",
              "name": "moves2",
              "type": "uint8"
            },
            {
              "internalType": "bool",
              "name": "settled",
              "type": "bool"
            }
          ],
          "internalType": "struct SplitOrSteal.Room",
          "name": "",
          "type": "tuple"
        }
      ],
      "stateMutability": "view",
      "type": "function"
    },
    {
      "inputs": [
        {
          "internalType": "uint256",
          "name": "roomId",
          "type": "uint256"
        },
        {
          "internalType": "uint256",
          "name": "nullifier",
          "type": "uint256"
        }
      ],
      "name": "joinRoom",
      "outputs": [],
      "stateMutability": "payable",
      "type": "function"
    },
    {
      "inputs": [
        {
          "internalType": "uint256",
          "name": "startId",
          "type": "uint256"
        },
        {
          "internalType": "uint256",
          "name": "limit",
          "type": "uint256"
        }
      ],
      "name": "listJoinable",
      "outputs": [
        {
          "internalType": "uint256[]",
          "name": "",
          "type": "uint256[]"
        }
      ],
      "stateMutability": "view",
      "type": "function"
    },
    {
      "inputs": [],
      "name": "nextRoomId",
      "outputs": [
        {
          "internalType": "uint256",
          "name": "",
          "type": "uint256"
        }
      ],
      "stateMutability": "view",
      "type": "function"
    },
    {
      "inputs": [],
      "name": "overtimeEnabled",
      "outputs": [
        {
          "internalType": "bool",
          "name": "",
          "type": "bool"
        }
      ],
      "stateMutability": "view",
      "type": "function"
    },
    {
      "inputs": [],
      "name": "owner",
      "outputs": [
        {
          "internalType": "address",
          "name": "",
          "type": "address"
        }
      ],
      "stateMutability": "view",
      "type": "function"
    },
    {
      "inputs": [
        {
          "internalType": "address",
          "name": "to",
          "type": "address"
        },
        {
          "internalType": "uint256",
          "name": "amount",
          "type": "uint256"
        }
      ],
      "name": "ownerWithdrawProtocolPool",
      "outputs": [],
      "stateMutability": "nonpayable",
      "type": "function"
    },
    {
      "inputs": [],
      "name": "protocolPool",
      "outputs": [
        {
          "internalType": "uint256",
          "name": "",
          "type": "uint256"
        }
      ],
      "stateMutability": "view",
      "type": "function"
    },
    {
      "inputs": [
        {
          "internalType": "uint256",
          "name": "roomId",
          "type": "uint256"
        },
        {
          "internalType": "uint8",
          "name": "moves5bits",
          "type": "uint8"
        },
        {
          "internalType": "bytes32",
          "name": "salt",
          "type": "bytes32"
        },
        {
          "internalType": "uint256",
          "name": "nullifier",
          "type": "uint256"
        }
      ],
      "name": "reveal",
      "outputs": [],
      "stateMutability": "nonpayable",
      "type": "function"
    },
    {
      "inputs": [
        {
          "internalType": "uint256",
          "name": "",
          "type": "uint256"
        }
      ],
      "name": "rooms",
      "outputs": [
        {
          "internalType": "address",
          "name": "p1",
          "type": "address"
        },
        {
          "internalType": "address",
          "name": "p2",
          "type": "address"
        },
        {
          "internalType": "uint256",
          "name": "stake",
          "type": "uint256"
        },
        {
          "internalType": "uint64",
          "name": "commitDL",
          "type": "uint64"
        },
        {
          "internalType": "uint64",
          "name": "revealDL",
          "type": "uint64"
        },
        {
          "internalType": "bytes32",
          "name": "c1",
          "type": "bytes32"
        },
        {
          "internalType": "bytes32",
          "name": "c2",
          "type": "bytes32"
        },
        {
          "internalType": "bool",
          "name": "r1",
          "type": "bool"
        },
        {
          "internalType": "bool",
          "name": "r2",
          "type": "bool"
        },
        {
          "internalType": "uint8",
          "name": "moves1",
          "type": "uint8"
        },
        {
          "internalType": "uint8",
          "name": "moves2",
          "type": "uint8"
        },
        {
          "internalType": "bool",
          "name": "settled",
          "type": "bool"
        }
      ],
      "stateMutability": "view",
      "type": "function"
    },
    {
      "inputs": [
        {
          "internalType": "uint256",
          "name": "roomId",
          "type": "uint256"
        }
      ],
      "name": "settle",
      "outputs": [],
      "stateMutability": "nonpayable",
      "type": "function"
    },
    {
      "inputs": [],
      "name": "withdraw",
      "outputs": [],
      "stateMutability": "nonpayable",
      "type": "function"
    },
    {
      "inputs": [
        {
          "internalType": "address",
          "name": "",
          "type": "address"
        }
      ],
      "name": "withdrawable",
      "outputs": [
        {
          "internalType": "uint256",
          "name": "",
          "type": "uint256"
        }
      ],
      "stateMutability": "view",
      "type": "function"
    },
    {
      "stateMutability": "payable",
      "type": "receive"
    }
  ],
  "bytecode": "0x60c0604052600160035534801561001557600080fd5b5060405161491f38038061491f83398181016040528101906100379190610177565b600073ffffffffffffffffffffffffffffffffffffffff168173ffffffffffffffffffffffffffffffffffffffff16036100a6576040517f08c379a000000000000000000000000000000000000000000000000000000000815260040161009d90610201565b60405180910390fd5b3373ffffffffffffffffffffffffffffffffffffffff1660808173ffffffffffffffffffffffffffffffffffffffff16815250508073ffffffffffffffffffffffffffffffffffffffff1660a08173ffffffffffffffffffffffffffffffffffffffff168152505050610221565b600080fd5b600073ffffffffffffffffffffffffffffffffffffffff82169050919050565b600061014482610119565b9050919050565b61015481610139565b811461015f57600080fd5b50565b6000815190506101718161014b565b92915050565b60006020828403121561018d5761018c610114565b5b600061019b84828501610162565b91505092915050565b600082825260208201905092915050565b7f7a65726f20616367630000000000000000000000000000000000000000000000600082015250565b60006101eb6009836101a4565b91506101f6826101b5565b602082019050919050565b6000602082019050818103600083015261021a816101de565b9050919050565b60805160a0516146c461025b6000396000818161139301528181611826015261295e01526000818161199a01526122fa01526146c46000f3fe6080604052600436106101235760003560e01c80637483bd78116100a0578063d8cc921f11610064578063d8cc921f146103da578063dfc3acc41461040a578063ef4d149714610435578063f16381911461045e578063fbad18131461049b5761012a565b80637483bd78146102f55780638396cf691461031e5780638da5cb5b146103495780638df8280014610374578063ce513b6f1461039d5761012a565b80633ccfd60b116100e75780633ccfd60b146102105780634b54d2041461022757806352a58473146102505780636a4b870f1461027b5780636d8a74cb146102b85761012a565b806307a52cab1461012f5780630a1c87a91461015a5780631bae0ac81461017657806327b36996146101be5780632d172edf146101e75761012a565b3661012a57005b600080fd5b34801561013b57600080fd5b506101446104c4565b6040516101519190612ba8565b60405180910390f35b610174600480360381019061016f9190612bf4565b6104ca565b005b34801561018257600080fd5b5061019d60048036038101906101989190612c34565b610735565b6040516101b59c9b9a99989796959493929190612d15565b60405180910390f35b3480156101ca57600080fd5b506101e560048036038101906101e09190612c34565b61083e565b005b3480156101f357600080fd5b5061020e60048036038101906102099190612c34565b610b26565b005b34801561021c57600080fd5b50610225610dbd565b005b34801561023357600080fd5b5061024e60048036038101906102499190612e27565b610f85565b005b34801561025c57600080fd5b50610265611391565b6040516102729190612eed565b60405180910390f35b34801561028757600080fd5b506102a2600480360381019061029d9190612bf4565b6113b5565b6040516102af9190612fc6565b60405180910390f35b3480156102c457600080fd5b506102df60048036038101906102da9190612c34565b611578565b6040516102ec9190613129565b60405180910390f35b34801561030157600080fd5b5061031c60048036038101906103179190612c34565b61175f565b005b34801561032a57600080fd5b50610333611992565b6040516103409190612ba8565b60405180910390f35b34801561035557600080fd5b5061035e611998565b60405161036b9190613145565b60405180910390f35b34801561038057600080fd5b5061039b60048036038101906103969190612c34565b6119bc565b005b3480156103a957600080fd5b506103c460048036038101906103bf919061318c565b6120a4565b6040516103d19190612ba8565b60405180910390f35b6103f460048036038101906103ef91906131e5565b6120bc565b6040516104019190612ba8565b60405180910390f35b34801561041657600080fd5b5061041f6122e5565b60405161042c919061324c565b60405180910390f35b34801561044157600080fd5b5061045c60048036038101906104579190613267565b6122f8565b005b34801561046a57600080fd5b506104856004803603810190610480919061318c565b612548565b6040516104929190612ba8565b60405180910390f35b3480156104a757600080fd5b506104c260048036038101906104bd91906132a7565b612560565b005b60035481565b6000600460008481526020019081526020016000209050600073ffffffffffffffffffffffffffffffffffffffff168160000160009054906101000a900473ffffffffffffffffffffffffffffffffffffffff1673ffffffffffffffffffffffffffffffffffffffff1603610574576040517f08c379a000000000000000000000000000000000000000000000000000000000815260040161056b90613357565b60405180910390fd5b600073ffffffffffffffffffffffffffffffffffffffff168160010160009054906101000a900473ffffffffffffffffffffffffffffffffffffffff1673ffffffffffffffffffffffffffffffffffffffff1614610607576040517f08c379a00000000000000000000000000000000000000000000000000000000081526004016105fe906133c3565b60405180910390fd5b8060060160049054906101000a900460ff1615610659576040517f08c379a00000000000000000000000000000000000000000000000000000000081526004016106509061342f565b60405180910390fd5b8060020154341461069f576040517f08c379a00000000000000000000000000000000000000000000000000000000081526004016106969061349b565b60405180910390fd5b6106a933836128c4565b338160010160006101000a81548173ffffffffffffffffffffffffffffffffffffffff021916908373ffffffffffffffffffffffffffffffffffffffff1602179055503373ffffffffffffffffffffffffffffffffffffffff16837f4b610eeeb5e92a25b7a102df072293c48d5eb6de84e4b7f463e63158b52d51d460405160405180910390a3505050565b60046020528060005260406000206000915090508060000160009054906101000a900473ffffffffffffffffffffffffffffffffffffffff16908060010160009054906101000a900473ffffffffffffffffffffffffffffffffffffffff16908060020154908060030160009054906101000a900467ffffffffffffffff16908060030160089054906101000a900467ffffffffffffffff16908060040154908060050154908060060160009054906101000a900460ff16908060060160019054906101000a900460ff16908060060160029054906101000a900460ff16908060060160039054906101000a900460ff16908060060160049054906101000a900460ff1690508c565b60006004600083815260200190815260200160002090508060030160009054906101000a900467ffffffffffffffff1667ffffffffffffffff1642116108b9576040517f08c379a00000000000000000000000000000000000000000000000000000000081526004016108b090613507565b60405180910390fd5b8060060160049054906101000a900460ff161561090b576040517f08c379a00000000000000000000000000000000000000000000000000000000081526004016109029061342f565b60405180910390fd5b600073ffffffffffffffffffffffffffffffffffffffff168160000160009054906101000a900473ffffffffffffffffffffffffffffffffffffffff1673ffffffffffffffffffffffffffffffffffffffff160361099e576040517f08c379a000000000000000000000000000000000000000000000000000000000815260040161099590613357565b60405180910390fd5b60008060001b82600401541415905060008060001b836005015414159050600073ffffffffffffffffffffffffffffffffffffffff168360010160009054906101000a900473ffffffffffffffffffffffffffffffffffffffff1673ffffffffffffffffffffffffffffffffffffffff1603610a4f576040517f08c379a0000000000000000000000000000000000000000000000000000000008152600401610a4690613573565b60405180910390fd5b811580610a5a575080155b15610ae55760018360060160046101000a81548160ff021916908315150217905550610aae8360000160009054906101000a900473ffffffffffffffffffffffffffffffffffffffff168460020154612a79565b610ae08360010160009054906101000a900473ffffffffffffffffffffffffffffffffffffffff168460020154612a79565b610b20565b6040517f08c379a0000000000000000000000000000000000000000000000000000000008152600401610b17906135df565b60405180910390fd5b50505050565b60006004600083815260200190815260200160002090503373ffffffffffffffffffffffffffffffffffffffff168160000160009054906101000a900473ffffffffffffffffffffffffffffffffffffffff1673ffffffffffffffffffffffffffffffffffffffff1614610bcf576040517f08c379a0000000000000000000000000000000000000000000000000000000008152600401610bc69061364b565b60405180910390fd5b600073ffffffffffffffffffffffffffffffffffffffff168160010160009054906101000a900473ffffffffffffffffffffffffffffffffffffffff1673ffffffffffffffffffffffffffffffffffffffff1614610c62576040517f08c379a0000000000000000000000000000000000000000000000000000000008152600401610c59906136b7565b60405180910390fd5b8060060160049054906101000a900460ff1615610cb4576040517f08c379a0000000000000000000000000000000000000000000000000000000008152600401610cab90613723565b60405180910390fd5b6000816002015490506000826002018190555060008260000160006101000a81548173ffffffffffffffffffffffffffffffffffffffff021916908373ffffffffffffffffffffffffffffffffffffffff16021790555060003373ffffffffffffffffffffffffffffffffffffffff1682604051610d3190613774565b60006040518083038185875af1925050503d8060008114610d6e576040519150601f19603f3d011682016040523d82523d6000602084013e610d73565b606091505b5050905080610db7576040517f08c379a0000000000000000000000000000000000000000000000000000000008152600401610dae906137d5565b60405180910390fd5b50505050565b60008060003373ffffffffffffffffffffffffffffffffffffffff1673ffffffffffffffffffffffffffffffffffffffff16815260200190815260200160002054905060008111610e43576040517f08c379a0000000000000000000000000000000000000000000000000000000008152600401610e3a90613841565b60405180910390fd5b60008060003373ffffffffffffffffffffffffffffffffffffffff1673ffffffffffffffffffffffffffffffffffffffff1681526020019081526020016000208190555060003373ffffffffffffffffffffffffffffffffffffffff1682604051610ead90613774565b60006040518083038185875af1925050503d8060008114610eea576040519150601f19603f3d011682016040523d82523d6000602084013e610eef565b606091505b5050905080610f33576040517f08c379a0000000000000000000000000000000000000000000000000000000008152600401610f2a906138ad565b60405180910390fd5b3373ffffffffffffffffffffffffffffffffffffffff167f7fcf532c15f0a6db0bd6d0e038bea71d30d808c7d98cb3bf7268a95bf5081b6583604051610f799190612ba8565b60405180910390a25050565b60006004600086815260200190815260200160002090508060030160089054906101000a900467ffffffffffffffff1667ffffffffffffffff16421115611001576040517f08c379a0000000000000000000000000000000000000000000000000000000008152600401610ff890613919565b60405180910390fd5b6000801b81600401541415801561101f57506000801b816005015414155b61105e576040517f08c379a000000000000000000000000000000000000000000000000000000000815260040161105590613985565b60405180910390fd5b61106833836128c4565b600085858560405160200161107f93929190613a1d565b6040516020818303038152906040528051906020012090508160000160009054906101000a900473ffffffffffffffffffffffffffffffffffffffff1673ffffffffffffffffffffffffffffffffffffffff163373ffffffffffffffffffffffffffffffffffffffff16036111c8578160060160009054906101000a900460ff1615611140576040517f08c379a000000000000000000000000000000000000000000000000000000000815260040161113790613aa6565b60405180910390fd5b81600401548114611186576040517f08c379a000000000000000000000000000000000000000000000000000000000815260040161117d90613b12565b60405180910390fd5b601f85168260060160026101000a81548160ff021916908360ff16021790555060018260060160006101000a81548160ff021916908315150217905550611335565b8160010160009054906101000a900473ffffffffffffffffffffffffffffffffffffffff1673ffffffffffffffffffffffffffffffffffffffff163373ffffffffffffffffffffffffffffffffffffffff16036112f9578160060160019054906101000a900460ff1615611271576040517f08c379a000000000000000000000000000000000000000000000000000000000815260040161126890613aa6565b60405180910390fd5b816005015481146112b7576040517f08c379a00000000000000000000000000000000000000000000000000000000081526004016112ae90613b12565b60405180910390fd5b601f85168260060160036101000a81548160ff021916908360ff16021790555060018260060160016101000a81548160ff021916908315150217905550611334565b6040517f08c379a000000000000000000000000000000000000000000000000000000000815260040161132b90613b7e565b60405180910390fd5b5b3373ffffffffffffffffffffffffffffffffffffffff16867f7b4b03c509e99f2cc502e1c27cb9e4895749ebd52d676eb39cbd5211c8bd5e16601f881687604051611381929190613b9e565b60405180910390a3505050505050565b7f000000000000000000000000000000000000000000000000000000000000000081565b606060006003549050600084036113cb57600193505b600083036113d857603292505b60008367ffffffffffffffff8111156113f4576113f3613bc7565b5b6040519080825280602002602001820160405280156114225781602001602082028036833780820191505090505b5090506000808690505b838110801561143a57508582105b15611568576000600460008381526020019081526020016000209050600073ffffffffffffffffffffffffffffffffffffffff168160000160009054906101000a900473ffffffffffffffffffffffffffffffffffffffff1673ffffffffffffffffffffffffffffffffffffffff16141580156115075750600073ffffffffffffffffffffffffffffffffffffffff168160010160009054906101000a900473ffffffffffffffffffffffffffffffffffffffff1673ffffffffffffffffffffffffffffffffffffffff16145b801561152257508060060160049054906101000a900460ff16155b15611554578184848061153490613c25565b95508151811061154757611546613c6d565b5b6020026020010181815250505b50808061156090613c25565b91505061142c565b5080825281935050505092915050565b611580612adc565b60046000838152602001908152602001600020604051806101800160405290816000820160009054906101000a900473ffffffffffffffffffffffffffffffffffffffff1673ffffffffffffffffffffffffffffffffffffffff1673ffffffffffffffffffffffffffffffffffffffff1681526020016001820160009054906101000a900473ffffffffffffffffffffffffffffffffffffffff1673ffffffffffffffffffffffffffffffffffffffff1673ffffffffffffffffffffffffffffffffffffffff168152602001600282015481526020016003820160009054906101000a900467ffffffffffffffff1667ffffffffffffffff1667ffffffffffffffff1681526020016003820160089054906101000a900467ffffffffffffffff1667ffffffffffffffff1667ffffffffffffffff16815260200160048201548152602001600582015481526020016006820160009054906101000a900460ff161515151581526020016006820160019054906101000a900460ff161515151581526020016006820160029054906101000a900460ff1660ff1660ff1681526020016006820160039054906101000a900460ff1660ff1660ff1681526020016006820160049054906101000a900460ff1615151515815250509050919050565b6000600260003373ffffffffffffffffffffffffffffffffffffffff1673ffffffffffffffffffffffffffffffffffffffff16815260200190815260200160002054146117e1576040517f08c379a00000000000000000000000000000000000000000000000000000000081526004016117d890613ce8565b60405180910390fd5b60008103611824576040517f08c379a000000000000000000000000000000000000000000000000000000000815260040161181b90613d54565b60405180910390fd5b7f000000000000000000000000000000000000000000000000000000000000000073ffffffffffffffffffffffffffffffffffffffff16635c5f6ede826040518263ffffffff1660e01b815260040161187d9190612ba8565b602060405180830381865afa15801561189a573d6000803e3d6000fd5b505050506040513d601f19601f820116820180604052508101906118be9190613da0565b6118fd576040517f08c379a00000000000000000000000000000000000000000000000000000000081526004016118f490613e19565b60405180910390fd5b80600260003373ffffffffffffffffffffffffffffffffffffffff1673ffffffffffffffffffffffffffffffffffffffff168152602001908152602001600020819055503373ffffffffffffffffffffffffffffffffffffffff167f699ddfc87488c671b50f066acb1c0dfb9baf898660890d138dacdab334d921ae826040516119879190612ba8565b60405180910390a250565b60055481565b7f000000000000000000000000000000000000000000000000000000000000000081565b60006004600083815260200190815260200160002090508060060160049054906101000a900460ff1615611a25576040517f08c379a0000000000000000000000000000000000000000000000000000000008152600401611a1c9061342f565b60405180910390fd5b600073ffffffffffffffffffffffffffffffffffffffff168160000160009054906101000a900473ffffffffffffffffffffffffffffffffffffffff1673ffffffffffffffffffffffffffffffffffffffff1614158015611ad75750600073ffffffffffffffffffffffffffffffffffffffff168160010160009054906101000a900473ffffffffffffffffffffffffffffffffffffffff1673ffffffffffffffffffffffffffffffffffffffff1614155b611b16576040517f08c379a0000000000000000000000000000000000000000000000000000000008152600401611b0d90613357565b60405180910390fd5b60008160030160089054906101000a900467ffffffffffffffff1667ffffffffffffffff164211905060008260060160009054906101000a900460ff168015611b6d57508260060160019054906101000a900460ff165b90508080611b785750815b611bb7576040517f08c379a0000000000000000000000000000000000000000000000000000000008152600401611bae90613eab565b60405180910390fd5b600060028460020154611bca9190613ecb565b90506000600582611bdb9190613f3c565b90506000600582611bec9190613ecb565b83611bf79190613f6d565b905060008060008615611d235760005b60058160ff161015611d1d5760006001808360ff168d60060160029054906101000a900460ff1660ff16901c1660ff1614905060006001808460ff168e60060160039054906101000a900460ff1660ff16901c1660ff1614905081158015611c6d575080155b15611cb657600288611c7f9190613f3c565b86611c8a9190613fa1565b9550600288611c999190613f3c565b88611ca49190613f6d565b85611caf9190613fa1565b9450611d0e565b818015611cc1575080155b15611cd9578786611cd29190613fa1565b9550611d0d565b81158015611ce45750805b15611cfc578785611cf59190613fa1565b9450611d0c565b600184611d099190613fa1565b93505b5b5b50508080600101915050611c07565b50611e18565b87611d63576040517f08c379a0000000000000000000000000000000000000000000000000000000008152600401611d5a90614021565b60405180910390fd5b60008960060160009054906101000a900460ff16905060008a60060160019054906101000a900460ff16905080151582151503611dd5576040517f08c379a0000000000000000000000000000000000000000000000000000000008152600401611dcc9061408d565b60405180910390fd5b8115611dfa57600587611de89190613ecb565b85611df39190613fa1565b9450611e15565b600587611e079190613ecb565b84611e129190613fa1565b93505b50505b6000811115611e9a576000848287611e309190613ecb565b611e3a9190613fa1565b90508060056000828254611e4e9190613fa1565b925050819055507fa948c2ab528945ee844abce5b7d9639e333606bbc85ee1b7cac7ccdaf9fc108781600554604051611e889291906140c6565b60405180910390a16000945050611efd565b6000841115611efc578360056000828254611eb59190613fa1565b925050819055507fa948c2ab528945ee844abce5b7d9639e333606bbc85ee1b7cac7ccdaf9fc108784600554604051611eef9291906140c6565b60405180910390a1600093505b5b60018960060160046101000a81548160ff021916908315150217905550611f488960000160009054906101000a900473ffffffffffffffffffffffffffffffffffffffff1684612a79565b611f768960010160009054906101000a900473ffffffffffffffffffffffffffffffffffffffff1683612a79565b600080600084861115611fd6578b60000160009054906101000a900473ffffffffffffffffffffffffffffffffffffffff1692508b60010160009054906101000a900473ffffffffffffffffffffffffffffffffffffffff169150612037565b85851115612031578b60010160009054906101000a900473ffffffffffffffffffffffffffffffffffffffff1692508b60000160009054906101000a900473ffffffffffffffffffffffffffffffffffffffff169150612036565b600190505b5b8c7f97ee553b96b2a90735c7b076025f136e11899b8a9b967948e5deb64de014e5708484888a11612068578861206a565b895b898b11612077578a612079565b895b898760405161208d969594939291906140ef565b60405180910390a250505050505050505050505050565b60006020528060005260406000206000915090505481565b6000808511612100576040517f08c379a00000000000000000000000000000000000000000000000000000000081526004016120f79061419c565b60405180910390fd5b843414612142576040517f08c379a00000000000000000000000000000000000000000000000000000000081526004016121399061349b565b60405180910390fd5b428467ffffffffffffffff1611801561216e57508367ffffffffffffffff168367ffffffffffffffff16115b6121ad576040517f08c379a00000000000000000000000000000000000000000000000000000000081526004016121a490614208565b60405180910390fd5b6121b733836128c4565b600360008154809291906121ca90613c25565b9190505590506000600460008381526020019081526020016000209050338160000160006101000a81548173ffffffffffffffffffffffffffffffffffffffff021916908373ffffffffffffffffffffffffffffffffffffffff160217905550858160020181905550848160030160006101000a81548167ffffffffffffffff021916908367ffffffffffffffff160217905550838160030160086101000a81548167ffffffffffffffff021916908367ffffffffffffffff1602179055503373ffffffffffffffffffffffffffffffffffffffff16827f25fe016a11dbf2c2b918a8b7b6331270fb3eff9ac9d7711db0755aa1cbd64a2d8888886040516122d493929190614228565b60405180910390a350949350505050565b600160009054906101000a900460ff1681565b7f000000000000000000000000000000000000000000000000000000000000000073ffffffffffffffffffffffffffffffffffffffff163373ffffffffffffffffffffffffffffffffffffffff1614612386576040517f08c379a000000000000000000000000000000000000000000000000000000000815260040161237d906142ab565b60405180910390fd5b600073ffffffffffffffffffffffffffffffffffffffff168273ffffffffffffffffffffffffffffffffffffffff16036123f5576040517f08c379a00000000000000000000000000000000000000000000000000000000081526004016123ec90614317565b60405180910390fd5b60055481111561243a576040517f08c379a000000000000000000000000000000000000000000000000000000000815260040161243190614383565b60405180910390fd5b806005600082825461244c9190613f6d565b9250508190555060008273ffffffffffffffffffffffffffffffffffffffff168260405161247990613774565b60006040518083038185875af1925050503d80600081146124b6576040519150601f19603f3d011682016040523d82523d6000602084013e6124bb565b606091505b50509050806124ff576040517f08c379a00000000000000000000000000000000000000000000000000000000081526004016124f6906143ef565b60405180910390fd5b7fa948c2ab528945ee844abce5b7d9639e333606bbc85ee1b7cac7ccdaf9fc10878261252a9061440f565b60055460405161253b9291906140c6565b60405180910390a1505050565b60026020528060005260406000206000915090505481565b6000600460008581526020019081526020016000209050600073ffffffffffffffffffffffffffffffffffffffff168160000160009054906101000a900473ffffffffffffffffffffffffffffffffffffffff1673ffffffffffffffffffffffffffffffffffffffff16141580156126295750600073ffffffffffffffffffffffffffffffffffffffff168160010160009054906101000a900473ffffffffffffffffffffffffffffffffffffffff1673ffffffffffffffffffffffffffffffffffffffff1614155b612668576040517f08c379a000000000000000000000000000000000000000000000000000000000815260040161265f906144a3565b60405180910390fd5b8060030160009054906101000a900467ffffffffffffffff1667ffffffffffffffff164211156126cd576040517f08c379a00000000000000000000000000000000000000000000000000000000081526004016126c49061450f565b60405180910390fd5b6126d733836128c4565b8060000160009054906101000a900473ffffffffffffffffffffffffffffffffffffffff1673ffffffffffffffffffffffffffffffffffffffff163373ffffffffffffffffffffffffffffffffffffffff1603612785576000801b816004015414612777576040517f08c379a000000000000000000000000000000000000000000000000000000000815260040161276e9061457b565b60405180910390fd5b82816004018190555061286f565b8060010160009054906101000a900473ffffffffffffffffffffffffffffffffffffffff1673ffffffffffffffffffffffffffffffffffffffff163373ffffffffffffffffffffffffffffffffffffffff1603612833576000801b816005015414612825576040517f08c379a000000000000000000000000000000000000000000000000000000000815260040161281c9061457b565b60405180910390fd5b82816005018190555061286e565b6040517f08c379a000000000000000000000000000000000000000000000000000000000815260040161286590613b7e565b60405180910390fd5b5b3373ffffffffffffffffffffffffffffffffffffffff16847f26a454697a4923cb3646779d831b5e4696bd3fab14b67dd6dfe23d72354f57dd856040516128b6919061459b565b60405180910390a350505050565b6000600260008473ffffffffffffffffffffffffffffffffffffffff1673ffffffffffffffffffffffffffffffffffffffff168152602001908152602001600020540361295c576000810361294e576040517f08c379a000000000000000000000000000000000000000000000000000000000815260040161294590614602565b60405180910390fd5b6129578161175f565b612a75565b7f000000000000000000000000000000000000000000000000000000000000000073ffffffffffffffffffffffffffffffffffffffff16635c5f6ede600260008573ffffffffffffffffffffffffffffffffffffffff1673ffffffffffffffffffffffffffffffffffffffff168152602001908152602001600020546040518263ffffffff1660e01b81526004016129f49190612ba8565b602060405180830381865afa158015612a11573d6000803e3d6000fd5b505050506040513d601f19601f82011682018060405250810190612a359190613da0565b612a74576040517f08c379a0000000000000000000000000000000000000000000000000000000008152600401612a6b9061466e565b60405180910390fd5b5b5050565b6000811115612ad857806000808473ffffffffffffffffffffffffffffffffffffffff1673ffffffffffffffffffffffffffffffffffffffff1681526020019081526020016000206000828254612ad09190613fa1565b925050819055505b5050565b604051806101800160405280600073ffffffffffffffffffffffffffffffffffffffff168152602001600073ffffffffffffffffffffffffffffffffffffffff16815260200160008152602001600067ffffffffffffffff168152602001600067ffffffffffffffff1681526020016000801916815260200160008019168152602001600015158152602001600015158152602001600060ff168152602001600060ff1681526020016000151581525090565b6000819050919050565b612ba281612b8f565b82525050565b6000602082019050612bbd6000830184612b99565b92915050565b600080fd5b612bd181612b8f565b8114612bdc57600080fd5b50565b600081359050612bee81612bc8565b92915050565b60008060408385031215612c0b57612c0a612bc3565b5b6000612c1985828601612bdf565b9250506020612c2a85828601612bdf565b9150509250929050565b600060208284031215612c4a57612c49612bc3565b5b6000612c5884828501612bdf565b91505092915050565b600073ffffffffffffffffffffffffffffffffffffffff82169050919050565b6000612c8c82612c61565b9050919050565b612c9c81612c81565b82525050565b600067ffffffffffffffff82169050919050565b612cbf81612ca2565b82525050565b6000819050919050565b612cd881612cc5565b82525050565b60008115159050919050565b612cf381612cde565b82525050565b600060ff82169050919050565b612d0f81612cf9565b82525050565b600061018082019050612d2b600083018f612c93565b612d38602083018e612c93565b612d45604083018d612b99565b612d52606083018c612cb6565b612d5f608083018b612cb6565b612d6c60a083018a612ccf565b612d7960c0830189612ccf565b612d8660e0830188612cea565b612d94610100830187612cea565b612da2610120830186612d06565b612db0610140830185612d06565b612dbe610160830184612cea565b9d9c50505050505050505050505050565b612dd881612cf9565b8114612de357600080fd5b50565b600081359050612df581612dcf565b92915050565b612e0481612cc5565b8114612e0f57600080fd5b50565b600081359050612e2181612dfb565b92915050565b60008060008060808587031215612e4157612e40612bc3565b5b6000612e4f87828801612bdf565b9450506020612e6087828801612de6565b9350506040612e7187828801612e12565b9250506060612e8287828801612bdf565b91505092959194509250565b6000819050919050565b6000612eb3612eae612ea984612c61565b612e8e565b612c61565b9050919050565b6000612ec582612e98565b9050919050565b6000612ed782612eba565b9050919050565b612ee781612ecc565b82525050565b6000602082019050612f026000830184612ede565b92915050565b600081519050919050565b600082825260208201905092915050565b6000819050602082019050919050565b612f3d81612b8f565b82525050565b6000612f4f8383612f34565b60208301905092915050565b6000602082019050919050565b6000612f7382612f08565b612f7d8185612f13565b9350612f8883612f24565b8060005b83811015612fb9578151612fa08882612f43565b9750612fab83612f5b565b925050600181019050612f8c565b5085935050505092915050565b60006020820190508181036000830152612fe08184612f68565b905092915050565b612ff181612c81565b82525050565b61300081612ca2565b82525050565b61300f81612cc5565b82525050565b61301e81612cde565b82525050565b61302d81612cf9565b82525050565b6101808201600082015161304a6000850182612fe8565b50602082015161305d6020850182612fe8565b5060408201516130706040850182612f34565b5060608201516130836060850182612ff7565b5060808201516130966080850182612ff7565b5060a08201516130a960a0850182613006565b5060c08201516130bc60c0850182613006565b5060e08201516130cf60e0850182613015565b506101008201516130e4610100850182613015565b506101208201516130f9610120850182613024565b5061014082015161310e610140850182613024565b50610160820151613123610160850182613015565b50505050565b60006101808201905061313f6000830184613033565b92915050565b600060208201905061315a6000830184612c93565b92915050565b61316981612c81565b811461317457600080fd5b50565b60008135905061318681613160565b92915050565b6000602082840312156131a2576131a1612bc3565b5b60006131b084828501613177565b91505092915050565b6131c281612ca2565b81146131cd57600080fd5b50565b6000813590506131df816131b9565b92915050565b600080600080608085870312156131ff576131fe612bc3565b5b600061320d87828801612bdf565b945050602061321e878288016131d0565b935050604061322f878288016131d0565b925050606061324087828801612bdf565b91505092959194509250565b60006020820190506132616000830184612cea565b92915050565b6000806040838503121561327e5761327d612bc3565b5b600061328c85828601613177565b925050602061329d85828601612bdf565b9150509250929050565b6000806000606084860312156132c0576132bf612bc3565b5b60006132ce86828701612bdf565b93505060206132df86828701612e12565b92505060406132f086828701612bdf565b9150509250925092565b600082825260208201905092915050565b7f6e6f20726f6f6d00000000000000000000000000000000000000000000000000600082015250565b60006133416007836132fa565b915061334c8261330b565b602082019050919050565b6000602082019050818103600083015261337081613334565b9050919050565b7f616c726561647920686173207032000000000000000000000000000000000000600082015250565b60006133ad600e836132fa565b91506133b882613377565b602082019050919050565b600060208201905081810360008301526133dc816133a0565b9050919050565b7f736574746c656400000000000000000000000000000000000000000000000000600082015250565b60006134196007836132fa565b9150613424826133e3565b602082019050919050565b600060208201905081810360008301526134488161340c565b9050919050565b7f73656e64206578616374207374616b6500000000000000000000000000000000600082015250565b60006134856010836132fa565b91506134908261344f565b602082019050919050565b600060208201905081810360008301526134b481613478565b9050919050565b7f746f6f206561726c790000000000000000000000000000000000000000000000600082015250565b60006134f16009836132fa565b91506134fc826134bb565b602082019050919050565b60006020820190508181036000830152613520816134e4565b9050919050565b7f6e6f626f6479206a6f696e656400000000000000000000000000000000000000600082015250565b600061355d600d836132fa565b915061356882613527565b602082019050919050565b6000602082019050818103600083015261358c81613550565b9050919050565b7f626f746820636f6d6d6974746564000000000000000000000000000000000000600082015250565b60006135c9600e836132fa565b91506135d482613593565b602082019050919050565b600060208201905081810360008301526135f8816135bc565b9050919050565b7f6e6f7420686f7374000000000000000000000000000000000000000000000000600082015250565b60006136356008836132fa565b9150613640826135ff565b602082019050919050565b6000602082019050818103600083015261366481613628565b9050919050565b7f616c7265616479206a6f696e6564000000000000000000000000000000000000600082015250565b60006136a1600e836132fa565b91506136ac8261366b565b602082019050919050565b600060208201905081810360008301526136d081613694565b9050919050565b7f616c726561647920736574746c65640000000000000000000000000000000000600082015250565b600061370d600f836132fa565b9150613718826136d7565b602082019050919050565b6000602082019050818103600083015261373c81613700565b9050919050565b600081905092915050565b50565b600061375e600083613743565b91506137698261374e565b600082019050919050565b600061377f82613751565b9150819050919050565b7f726566756e64206661696c656400000000000000000000000000000000000000600082015250565b60006137bf600d836132fa565b91506137ca82613789565b602082019050919050565b600060208201905081810360008301526137ee816137b2565b9050919050565b7f4e6f7468696e6720746f20776974686472617700000000000000000000000000600082015250565b600061382b6013836132fa565b9150613836826137f5565b602082019050919050565b6000602082019050818103600083015261385a8161381e565b9050919050565b7f4554482073656e64206661696c65640000000000000000000000000000000000600082015250565b6000613897600f836132fa565b91506138a282613861565b602082019050919050565b600060208201905081810360008301526138c68161388a565b9050919050565b7f72657665616c2077696e646f7720636c6f736564000000000000000000000000600082015250565b60006139036014836132fa565b915061390e826138cd565b602082019050919050565b60006020820190508181036000830152613932816138f6565b9050919050565b7f626f7468206d75737420636f6d6d697420666972737400000000000000000000600082015250565b600061396f6016836132fa565b915061397a82613939565b602082019050919050565b6000602082019050818103600083015261399e81613962565b9050919050565b6000819050919050565b6139c06139bb82612b8f565b6139a5565b82525050565b60008160f81b9050919050565b60006139de826139c6565b9050919050565b6139f66139f182612cf9565b6139d3565b82525050565b6000819050919050565b613a17613a1282612cc5565b6139fc565b82525050565b6000613a2982866139af565b602082019150613a3982856139e5565b600182019150613a498284613a06565b602082019150819050949350505050565b7f616c72656164792072657665616c656400000000000000000000000000000000600082015250565b6000613a906010836132fa565b9150613a9b82613a5a565b602082019050919050565b60006020820190508181036000830152613abf81613a83565b9050919050565b7f6261642072657665616c00000000000000000000000000000000000000000000600082015250565b6000613afc600a836132fa565b9150613b0782613ac6565b602082019050919050565b60006020820190508181036000830152613b2b81613aef565b9050919050565b7f6e6f74207061727469636970616e740000000000000000000000000000000000600082015250565b6000613b68600f836132fa565b9150613b7382613b32565b602082019050919050565b60006020820190508181036000830152613b9781613b5b565b9050919050565b6000604082019050613bb36000830185612d06565b613bc06020830184612ccf565b9392505050565b7f4e487b7100000000000000000000000000000000000000000000000000000000600052604160045260246000fd5b7f4e487b7100000000000000000000000000000000000000000000000000000000600052601160045260246000fd5b6000613c3082612b8f565b91507fffffffffffffffffffffffffffffffffffffffffffffffffffffffffffffffff8203613c6257613c61613bf6565b5b600182019050919050565b7f4e487b7100000000000000000000000000000000000000000000000000000000600052603260045260246000fd5b7f616c726561647920626f756e6400000000000000000000000000000000000000600082015250565b6000613cd2600d836132fa565b9150613cdd82613c9c565b602082019050919050565b60006020820190508181036000830152613d0181613cc5565b9050919050565b7f6e6f206e756c6c69666965720000000000000000000000000000000000000000600082015250565b6000613d3e600c836132fa565b9150613d4982613d08565b602082019050919050565b60006020820190508181036000830152613d6d81613d31565b9050919050565b613d7d81612cde565b8114613d8857600080fd5b50565b600081519050613d9a81613d74565b92915050565b600060208284031215613db657613db5612bc3565b5b6000613dc484828501613d8b565b91505092915050565b7f6e6f742076657269666965642f62616e6e656400000000000000000000000000600082015250565b6000613e036013836132fa565b9150613e0e82613dcd565b602082019050919050565b60006020820190508181036000830152613e3281613df6565b9050919050565b7f7761697420756e74696c20626f74682072657665616c206f7220646561646c6960008201527f6e65000000000000000000000000000000000000000000000000000000000000602082015250565b6000613e956022836132fa565b9150613ea082613e39565b604082019050919050565b60006020820190508181036000830152613ec481613e88565b9050919050565b6000613ed682612b8f565b9150613ee183612b8f565b9250828202613eef81612b8f565b91508282048414831517613f0657613f05613bf6565b5b5092915050565b7f4e487b7100000000000000000000000000000000000000000000000000000000600052601260045260246000fd5b6000613f4782612b8f565b9150613f5283612b8f565b925082613f6257613f61613f0d565b5b828204905092915050565b6000613f7882612b8f565b9150613f8383612b8f565b9250828203905081811115613f9b57613f9a613bf6565b5b92915050565b6000613fac82612b8f565b9150613fb783612b8f565b9250828201905080821115613fcf57613fce613bf6565b5b92915050565b7f646561646c696e65206e6f742070617373656400000000000000000000000000600082015250565b600061400b6013836132fa565b915061401682613fd5565b602082019050919050565b6000602082019050818103600083015261403a81613ffe565b9050919050565b7f696e76616c696420666f72666569742073746174650000000000000000000000600082015250565b60006140776015836132fa565b915061408282614041565b602082019050919050565b600060208201905081810360008301526140a68161406a565b9050919050565b6000819050919050565b6140c0816140ad565b82525050565b60006040820190506140db60008301856140b7565b6140e86020830184612b99565b9392505050565b600060c0820190506141046000830189612c93565b6141116020830188612c93565b61411e6040830187612b99565b61412b6060830186612b99565b6141386080830185612b99565b61414560a0830184612cea565b979650505050505050565b7f7374616b653d3000000000000000000000000000000000000000000000000000600082015250565b60006141866007836132fa565b915061419182614150565b602082019050919050565b600060208201905081810360008301526141b581614179565b9050919050565b7f62616420646561646c696e657300000000000000000000000000000000000000600082015250565b60006141f2600d836132fa565b91506141fd826141bc565b602082019050919050565b60006020820190508181036000830152614221816141e5565b9050919050565b600060608201905061423d6000830186612b99565b61424a6020830185612cb6565b6142576040830184612cb6565b949350505050565b7f6e6f74206f776e65720000000000000000000000000000000000000000000000600082015250565b60006142956009836132fa565b91506142a08261425f565b602082019050919050565b600060208201905081810360008301526142c481614288565b9050919050565b7f7a65726f20616464720000000000000000000000000000000000000000000000600082015250565b60006143016009836132fa565b915061430c826142cb565b602082019050919050565b60006020820190508181036000830152614330816142f4565b9050919050565b7f6578636565647320706f6f6c0000000000000000000000000000000000000000600082015250565b600061436d600c836132fa565b915061437882614337565b602082019050919050565b6000602082019050818103600083015261439c81614360565b9050919050565b7f73656e64206661696c6564000000000000000000000000000000000000000000600082015250565b60006143d9600b836132fa565b91506143e4826143a3565b602082019050919050565b60006020820190508181036000830152614408816143cc565b9050919050565b600061441a826140ad565b91507f8000000000000000000000000000000000000000000000000000000000000000820361444c5761444b613bf6565b5b816000039050919050565b7f6e6565642074776f20706c617965727300000000000000000000000000000000600082015250565b600061448d6010836132fa565b915061449882614457565b602082019050919050565b600060208201905081810360008301526144bc81614480565b9050919050565b7f636f6d6d69742077696e646f7720636c6f736564000000000000000000000000600082015250565b60006144f96014836132fa565b9150614504826144c3565b602082019050919050565b60006020820190508181036000830152614528816144ec565b9050919050565b7f616c726561647920636f6d6d6974746564000000000000000000000000000000600082015250565b60006145656011836132fa565b91506145708261452f565b602082019050919050565b6000602082019050818103600083015261459481614558565b9050919050565b60006020820190506145b06000830184612ccf565b92915050565b7f6d697373696e67206e756c6c6966696572000000000000000000000000000000600082015250565b60006145ec6011836132fa565b91506145f7826145b6565b602082019050919050565b6000602082019050818103600083015261461b816145df565b9050919050565b7f62616e6e65642f6e6f7420616c6c6f7765640000000000000000000000000000600082015250565b60006146586012836132fa565b915061466382614622565b602082019050919050565b600060208201905081810360008301526146878161464b565b905091905056fea264697066735822122062ddb0b4fa5d1a05cc5527f5feb4aef715751952affb04b41d855e869495bde364736f6c634300081c0033",
  "linkReferences": {},
  "deployedLinkReferences": {}
}